:100000000C9434000C943E000C943E000C943E0082
:100010000C943E000C943E000C943E000C943E0068
:100020000C943E000C943E000C943E000C943E0058
:100030000C943E000C943E000C943E000C943E0048
:100040000C943E000C943E000C943E000C943E0038
:100050000C943E000C943E000C943E000C943E0028
:100060000C943E000C943E0011241FBECFEFD8E04C
:10007000DEBFCDBF0E9440000C9458000C940000DD
:1000800082E084B915B815B82FE936E891E021501F
:1000900030409040E1F700C0000085B92FE936E814
:1000A00091E0215030409040E1F700C00000EBCFDC
:0400B000F894FFCFF2
:00000001FF
