S0140000626C696E6B696E675F6C65642E737265632E
S11300000C9434000C943E000C943E000C943E007E
S11300100C943E000C943E000C943E000C943E0064
S11300200C943E000C943E000C943E000C943E0054
S11300300C943E000C943E000C943E000C943E0044
S11300400C943E000C943E000C943E000C943E0034
S11300500C943E000C943E000C943E000C943E0024
S11300600C943E000C943E0011241FBECFEFD8E048
S1130070DEBFCDBF0E9440000C9457000C940000DA
S11300808FEF84B915B82FE73AE196E0215030405C
S11300909040E1F700C0000085B92FE73AE196E00F
S11300A0215030409040E1F700C00000EBCFF894BD
S10500B0FFCF7C
S9030000FC
